{
  "contractName": "SimpleAccount",
  "abi": [
    {
      "inputs": [
        {
          "internalType": "contract IEntryPoint",
          "name": "anEntryPoint",
          "type": "address"
        }
      ],
      "stateMutability": "nonpayable",
      "type": "constructor"
    },
    {
      "anonymous": false,
      "inputs": [
        {
          "indexed": false,
          "internalType": "address",
          "name": "previousAdmin",
          "type": "address"
        },
        {
          "indexed": false,
          "internalType": "address",
          "name": "newAdmin",
          "type": "address"
        }
      ],
      "name": "AdminChanged",
      "type": "event"
    },
    {
      "anonymous": false,
      "inputs": [
        {
          "indexed": true,
          "internalType": "address",
          "name": "beacon",
          "type": "address"
        }
      ],
      "name": "BeaconUpgraded",
      "type": "event"
    },
    {
      "anonymous": false,
      "inputs": [
        {
          "indexed": false,
          "internalType": "uint8",
          "name": "version",
          "type": "uint8"
        }
      ],
      "name": "Initialized",
      "type": "event"
    },
    {
      "anonymous": false,
      "inputs": [
        {
          "indexed": true,
          "internalType": "contract IEntryPoint",
          "name": "entryPoint",
          "type": "address"
        },
        {
          "indexed": true,
          "internalType": "address",
          "name": "owner",
          "type": "address"
        }
      ],
      "name": "SimpleAccountInitialized",
      "type": "event"
    },
    {
      "anonymous": false,
      "inputs": [
        {
          "indexed": true,
          "internalType": "address",
          "name": "implementation",
          "type": "address"
        }
      ],
      "name": "Upgraded",
      "type": "event"
    },
    {
      "inputs": [],
      "name": "owner",
      "outputs": [
        {
          "internalType": "address",
          "name": "",
          "type": "address"
        }
      ],
      "stateMutability": "view",
      "type": "function",
      "constant": true
    },
    {
      "inputs": [],
      "name": "proxiableUUID",
      "outputs": [
        {
          "internalType": "bytes32",
          "name": "",
          "type": "bytes32"
        }
      ],
      "stateMutability": "view",
      "type": "function",
      "constant": true
    },
    {
      "inputs": [
        {
          "internalType": "address",
          "name": "newImplementation",
          "type": "address"
        }
      ],
      "name": "upgradeTo",
      "outputs": [],
      "stateMutability": "nonpayable",
      "type": "function"
    },
    {
      "inputs": [
        {
          "internalType": "address",
          "name": "newImplementation",
          "type": "address"
        },
        {
          "internalType": "bytes",
          "name": "data",
          "type": "bytes"
        }
      ],
      "name": "upgradeToAndCall",
      "outputs": [],
      "stateMutability": "payable",
      "type": "function",
      "payable": true
    },
    {
      "inputs": [
        {
          "components": [
            {
              "internalType": "address",
              "name": "sender",
              "type": "address"
            },
            {
              "internalType": "uint256",
              "name": "nonce",
              "type": "uint256"
            },
            {
              "internalType": "bytes",
              "name": "initCode",
              "type": "bytes"
            },
            {
              "internalType": "bytes",
              "name": "callData",
              "type": "bytes"
            },
            {
              "internalType": "uint256",
              "name": "callGasLimit",
              "type": "uint256"
            },
            {
              "internalType": "uint256",
              "name": "verificationGasLimit",
              "type": "uint256"
            },
            {
              "internalType": "uint256",
              "name": "preVerificationGas",
              "type": "uint256"
            },
            {
              "internalType": "uint256",
              "name": "maxFeePerGas",
              "type": "uint256"
            },
            {
              "internalType": "uint256",
              "name": "maxPriorityFeePerGas",
              "type": "uint256"
            },
            {
              "internalType": "bytes",
              "name": "paymasterAndData",
              "type": "bytes"
            },
            {
              "internalType": "bytes",
              "name": "signature",
              "type": "bytes"
            }
          ],
          "internalType": "struct UserOperation",
          "name": "userOp",
          "type": "tuple"
        },
        {
          "internalType": "bytes32",
          "name": "userOpHash",
          "type": "bytes32"
        },
        {
          "internalType": "address",
          "name": "aggregator",
          "type": "address"
        },
        {
          "internalType": "uint256",
          "name": "missingAccountFunds",
          "type": "uint256"
        }
      ],
      "name": "validateUserOp",
      "outputs": [
        {
          "internalType": "uint256",
          "name": "sigTimeRange",
          "type": "uint256"
        }
      ],
      "stateMutability": "nonpayable",
      "type": "function"
    },
    {
      "stateMutability": "payable",
      "type": "receive",
      "payable": true
    },
    {
      "inputs": [],
      "name": "nonce",
      "outputs": [
        {
          "internalType": "uint256",
          "name": "",
          "type": "uint256"
        }
      ],
      "stateMutability": "view",
      "type": "function",
      "constant": true
    },
    {
      "inputs": [],
      "name": "entryPoint",
      "outputs": [
        {
          "internalType": "contract IEntryPoint",
          "name": "",
          "type": "address"
        }
      ],
      "stateMutability": "view",
      "type": "function",
      "constant": true
    },
    {
      "inputs": [
        {
          "internalType": "address",
          "name": "dest",
          "type": "address"
        },
        {
          "internalType": "uint256",
          "name": "value",
          "type": "uint256"
        },
        {
          "internalType": "bytes",
          "name": "func",
          "type": "bytes"
        }
      ],
      "name": "execute",
      "outputs": [],
      "stateMutability": "nonpayable",
      "type": "function"
    },
    {
      "inputs": [
        {
          "internalType": "address[]",
          "name": "dest",
          "type": "address[]"
        },
        {
          "internalType": "bytes[]",
          "name": "func",
          "type": "bytes[]"
        }
      ],
      "name": "executeBatch",
      "outputs": [],
      "stateMutability": "nonpayable",
      "type": "function"
    },
    {
      "inputs": [
        {
          "internalType": "address",
          "name": "anOwner",
          "type": "address"
        }
      ],
      "name": "initialize",
      "outputs": [],
      "stateMutability": "nonpayable",
      "type": "function"
    },
    {
      "inputs": [],
      "name": "getDeposit",
      "outputs": [
        {
          "internalType": "uint256",
          "name": "",
          "type": "uint256"
        }
      ],
      "stateMutability": "view",
      "type": "function",
      "constant": true
    },
    {
      "inputs": [],
      "name": "addDeposit",
      "outputs": [],
      "stateMutability": "payable",
      "type": "function",
      "payable": true
    },
    {
      "inputs": [
        {
          "internalType": "address payable",
          "name": "withdrawAddress",
          "type": "address"
        },
        {
          "internalType": "uint256",
          "name": "amount",
          "type": "uint256"
        }
      ],
      "name": "withdrawDepositTo",
      "outputs": [],
      "stateMutability": "nonpayable",
      "type": "function"
    }
  ],
  "bytecode": "0x60c06040523060805234801561001457600080fd5b5060405161196838038061196883398101604081905261003391610044565b6001600160a01b031660a052610074565b60006020828403121561005657600080fd5b81516001600160a01b038116811461006d57600080fd5b9392505050565b60805160a0516118896100df60003960008181610202015281816104a50152818161052b015281816107880152818161093301528181610b690152610e4a0152600081816103cc0152818161040c015281816105bc015281816105fc015261068f01526118896000f3fe6080604052600436106100c65760003560e01c806352d1902d1161007f578063b0d691fe11610059578063b0d691fe146101f3578063b61d27f614610226578063c399ec8814610246578063c4d66de81461025b57600080fd5b806352d1902d146101825780638da5cb5b14610197578063affed0e0146101cf57600080fd5b80630825d1fc146100d257806318dfb3c7146101055780633659cfe6146101275780634a58db19146101475780634d44560d1461014f5780634f1ef2861461016f57600080fd5b366100cd57005b600080fd5b3480156100de57600080fd5b506100f26100ed36600461135c565b61027b565b6040519081526020015b60405180910390f35b34801561011157600080fd5b50610125610120366004611408565b6102c2565b005b34801561013357600080fd5b50610125610142366004611474565b6103c2565b6101256104a1565b34801561015b57600080fd5b5061012561016a366004611491565b610521565b61012561017d3660046114d3565b6105b2565b34801561018e57600080fd5b506100f2610682565b3480156101a357600080fd5b506001546101b7906001600160a01b031681565b6040516001600160a01b0390911681526020016100fc565b3480156101db57600080fd5b506000546201000090046001600160601b03166100f2565b3480156101ff57600080fd5b507f00000000000000000000000000000000000000000000000000000000000000006101b7565b34801561023257600080fd5b50610125610241366004611597565b610735565b34801561025257600080fd5b506100f2610784565b34801561026757600080fd5b50610125610276366004611474565b610816565b6000610285610928565b6102908585856109a2565b905061029f6040860186611620565b90506000036102b1576102b185610a78565b6102ba82610b11565b949350505050565b6102ca610b5e565b8281146103145760405162461bcd60e51b815260206004820152601360248201527277726f6e67206172726179206c656e6774687360681b60448201526064015b60405180910390fd5b60005b838110156103bb576103a985858381811061033457610334611667565b90506020020160208101906103499190611474565b600085858581811061035d5761035d611667565b905060200281019061036f9190611620565b8080601f016020809104026020016040519081016040528093929190818152602001838380828437600092019190915250610beb92505050565b806103b381611693565b915050610317565b5050505050565b6001600160a01b037f000000000000000000000000000000000000000000000000000000000000000016300361040a5760405162461bcd60e51b815260040161030b906116ac565b7f00000000000000000000000000000000000000000000000000000000000000006001600160a01b031661045360008051602061180d833981519152546001600160a01b031690565b6001600160a01b0316146104795760405162461bcd60e51b815260040161030b906116f8565b61048281610c5b565b6040805160008082526020820190925261049e91839190610c63565b50565b60007f00000000000000000000000000000000000000000000000000000000000000006001600160a01b03163460405160006040518083038185875af1925050503d806000811461050e576040519150601f19603f3d011682016040523d82523d6000602084013e610513565b606091505b505090508061049e57600080fd5b610529610dd3565b7f000000000000000000000000000000000000000000000000000000000000000060405163040b850f60e31b81526001600160a01b03848116600483015260248201849052919091169063205c287890604401600060405180830381600087803b15801561059657600080fd5b505af11580156105aa573d6000803e3d6000fd5b505050505050565b6001600160a01b037f00000000000000000000000000000000000000000000000000000000000000001630036105fa5760405162461bcd60e51b815260040161030b906116ac565b7f00000000000000000000000000000000000000000000000000000000000000006001600160a01b031661064360008051602061180d833981519152546001600160a01b031690565b6001600160a01b0316146106695760405162461bcd60e51b815260040161030b906116f8565b61067282610c5b565b61067e82826001610c63565b5050565b6000306001600160a01b037f000000000000000000000000000000000000000000000000000000000000000016146107225760405162461bcd60e51b815260206004820152603860248201527f555550535570677261646561626c653a206d757374206e6f742062652063616c60448201527f6c6564207468726f7567682064656c656761746563616c6c0000000000000000606482015260840161030b565b5060008051602061180d83398151915290565b61073d610b5e565b61077e848484848080601f016020809104026020016040519081016040528093929190818152602001838380828437600092019190915250610beb92505050565b50505050565b60007f00000000000000000000000000000000000000000000000000000000000000006040516370a0823160e01b81523060048201526001600160a01b0391909116906370a0823190602401602060405180830381865afa1580156107ed573d6000803e3d6000fd5b505050506040513d601f19601f820116820180604052508101906108119190611744565b905090565b600054610100900460ff16158080156108365750600054600160ff909116105b806108505750303b158015610850575060005460ff166001145b6108b35760405162461bcd60e51b815260206004820152602e60248201527f496e697469616c697a61626c653a20636f6e747261637420697320616c72656160448201526d191e481a5b9a5d1a585b1a5e995960921b606482015260840161030b565b6000805460ff1916600117905580156108d6576000805461ff0019166101001790555b6108df82610e24565b801561067e576000805461ff0019169055604051600181527f7f26b83ff96e1f2b6a682f133852f6798a09c465da95921460cefb38474024989060200160405180910390a15050565b336001600160a01b037f000000000000000000000000000000000000000000000000000000000000000016146109a05760405162461bcd60e51b815260206004820152601c60248201527f6163636f756e743a206e6f742066726f6d20456e747279506f696e7400000000604482015260640161030b565b565b6000806109fc846040517f19457468657265756d205369676e6564204d6573736167653a0a3332000000006020820152603c8101829052600090605c01604051602081830303815290604052805190602001209050919050565b9050610a4c610a0f610140870187611620565b8080601f0160208091040260200160405190810160405280939291908181526020018383808284376000920191909152508593925050610e949050565b6001546001600160a01b03908116911614610a6b576001915050610a71565b60009150505b9392505050565b60008054602083013591620100009091046001600160601b0316906002610a9e8361175d565b91906101000a8154816001600160601b0302191690836001600160601b031602179055506001600160601b03161461049e5760405162461bcd60e51b81526020600482015260166024820152756163636f756e743a20696e76616c6964206e6f6e636560501b604482015260640161030b565b801561049e57604051600090339060001990849084818181858888f193505050503d80600081146103bb576040519150601f19603f3d011682016040523d82523d6000602084013e6103bb565b336001600160a01b037f0000000000000000000000000000000000000000000000000000000000000000161480610b9f57506001546001600160a01b031633145b6109a05760405162461bcd60e51b815260206004820181905260248201527f6163636f756e743a206e6f74204f776e6572206f7220456e747279506f696e74604482015260640161030b565b600080846001600160a01b03168484604051610c0791906117a7565b60006040518083038185875af1925050503d8060008114610c44576040519150601f19603f3d011682016040523d82523d6000602084013e610c49565b606091505b5091509150816103bb57805160208201fd5b61049e610dd3565b7f4910fdfa16fed3260ed0e7147f7cc6da11a60208b5b9406d12a635614ffd91435460ff1615610c9b57610c9683610eb8565b505050565b826001600160a01b03166352d1902d6040518163ffffffff1660e01b8152600401602060405180830381865afa925050508015610cf5575060408051601f3d908101601f19168201909252610cf291810190611744565b60015b610d585760405162461bcd60e51b815260206004820152602e60248201527f45524331393637557067726164653a206e657720696d706c656d656e7461746960448201526d6f6e206973206e6f74205555505360901b606482015260840161030b565b60008051602061180d8339815191528114610dc75760405162461bcd60e51b815260206004820152602960248201527f45524331393637557067726164653a20756e737570706f727465642070726f786044820152681a58589b195555525160ba1b606482015260840161030b565b50610c96838383610f54565b6001546001600160a01b0316331480610deb57503330145b6109a05760405162461bcd60e51b815260206004820152600a60248201526937b7363c9037bbb732b960b11b604482015260640161030b565b600180546001600160a01b0319166001600160a01b0383811691821790925560405190917f000000000000000000000000000000000000000000000000000000000000000016907f47e55c76e7a6f1fd8996a1da8008c1ea29699cca35e7bcd057f2dec313b6e5de90600090a350565b6000806000610ea38585610f79565b91509150610eb081610fbe565b509392505050565b6001600160a01b0381163b610f255760405162461bcd60e51b815260206004820152602d60248201527f455243313936373a206e657720696d706c656d656e746174696f6e206973206e60448201526c1bdd08184818dbdb9d1c9858dd609a1b606482015260840161030b565b60008051602061180d83398151915280546001600160a01b0319166001600160a01b0392909216919091179055565b610f5d83611108565b600082511180610f6a5750805b15610c965761077e8383611148565b6000808251604103610faf5760208301516040840151606085015160001a610fa38782858561116d565b94509450505050610fb7565b506000905060025b9250929050565b6000816004811115610fd257610fd26117c3565b03610fda5750565b6001816004811115610fee57610fee6117c3565b0361103b5760405162461bcd60e51b815260206004820152601860248201527f45434453413a20696e76616c6964207369676e61747572650000000000000000604482015260640161030b565b600281600481111561104f5761104f6117c3565b0361109c5760405162461bcd60e51b815260206004820152601f60248201527f45434453413a20696e76616c6964207369676e6174757265206c656e67746800604482015260640161030b565b60038160048111156110b0576110b06117c3565b0361049e5760405162461bcd60e51b815260206004820152602260248201527f45434453413a20696e76616c6964207369676e6174757265202773272076616c604482015261756560f01b606482015260840161030b565b61111181610eb8565b6040516001600160a01b038216907fbc7cd75a20ee27fd9adebab32041f755214dbc6bffa90cc0225b39da2e5c2d3b90600090a250565b6060610a71838360405180606001604052806027815260200161182d60279139611231565b6000807f7fffffffffffffffffffffffffffffff5d576e7357a4501ddfe92f46681b20a08311156111a45750600090506003611228565b6040805160008082526020820180845289905260ff881692820192909252606081018690526080810185905260019060a0016020604051602081039080840390855afa1580156111f8573d6000803e3d6000fd5b5050604051601f1901519150506001600160a01b03811661122157600060019250925050611228565b9150600090505b94509492505050565b6060600080856001600160a01b03168560405161124e91906117a7565b600060405180830381855af49150503d8060008114611289576040519150601f19603f3d011682016040523d82523d6000602084013e61128e565b606091505b509150915061129f868383876112a9565b9695505050505050565b60608315611318578251600003611311576001600160a01b0385163b6113115760405162461bcd60e51b815260206004820152601d60248201527f416464726573733a2063616c6c20746f206e6f6e2d636f6e7472616374000000604482015260640161030b565b50816102ba565b6102ba838381511561132d5781518083602001fd5b8060405162461bcd60e51b815260040161030b91906117d9565b6001600160a01b038116811461049e57600080fd5b6000806000806080858703121561137257600080fd5b843567ffffffffffffffff81111561138957600080fd5b8501610160818803121561139c57600080fd5b93506020850135925060408501356113b381611347565b9396929550929360600135925050565b60008083601f8401126113d557600080fd5b50813567ffffffffffffffff8111156113ed57600080fd5b6020830191508360208260051b8501011115610fb757600080fd5b6000806000806040858703121561141e57600080fd5b843567ffffffffffffffff8082111561143657600080fd5b611442888389016113c3565b9096509450602087013591508082111561145b57600080fd5b50611468878288016113c3565b95989497509550505050565b60006020828403121561148657600080fd5b8135610a7181611347565b600080604083850312156114a457600080fd5b82356114af81611347565b946020939093013593505050565b634e487b7160e01b600052604160045260246000fd5b600080604083850312156114e657600080fd5b82356114f181611347565b9150602083013567ffffffffffffffff8082111561150e57600080fd5b818501915085601f83011261152257600080fd5b813581811115611534576115346114bd565b604051601f8201601f19908116603f0116810190838211818310171561155c5761155c6114bd565b8160405282815288602084870101111561157557600080fd5b8260208601602083013760006020848301015280955050505050509250929050565b600080600080606085870312156115ad57600080fd5b84356115b881611347565b935060208501359250604085013567ffffffffffffffff808211156115dc57600080fd5b818701915087601f8301126115f057600080fd5b8135818111156115ff57600080fd5b88602082850101111561161157600080fd5b95989497505060200194505050565b6000808335601e1984360301811261163757600080fd5b83018035915067ffffffffffffffff82111561165257600080fd5b602001915036819003821315610fb757600080fd5b634e487b7160e01b600052603260045260246000fd5b634e487b7160e01b600052601160045260246000fd5b6000600182016116a5576116a561167d565b5060010190565b6020808252602c908201527f46756e6374696f6e206d7573742062652063616c6c6564207468726f7567682060408201526b19195b1959d85d1958d85b1b60a21b606082015260800190565b6020808252602c908201527f46756e6374696f6e206d7573742062652063616c6c6564207468726f7567682060408201526b6163746976652070726f787960a01b606082015260800190565b60006020828403121561175657600080fd5b5051919050565b60006001600160601b038083168181036117795761177961167d565b6001019392505050565b60005b8381101561179e578181015183820152602001611786565b50506000910152565b600082516117b9818460208701611783565b9190910192915050565b634e487b7160e01b600052602160045260246000fd5b60208152600082518060208401526117f8816040850160208701611783565b601f01601f1916919091016040019291505056fe360894a13ba1a3210667c828492db98dca3e2076cc3735a920a3ca505d382bbc416464726573733a206c6f772d6c6576656c2064656c65676174652063616c6c206661696c6564a2646970667358221220d594627dd92e3d567061eccc11e64ae1106da7c99440cd37dc901f5f1314e16464736f6c63430008120033",
  "immutableReferences": {
    "611": [
      {
        "length": 32,
        "start": 972
      },
      {
        "length": 32,
        "start": 1036
      },
      {
        "length": 32,
        "start": 1468
      },
      {
        "length": 32,
        "start": 1532
      },
      {
        "length": 32,
        "start": 1679
      }
    ],
    "2800": [
      {
        "length": 32,
        "start": 514
      },
      {
        "length": 32,
        "start": 1189
      },
      {
        "length": 32,
        "start": 1323
      },
      {
        "length": 32,
        "start": 1928
      },
      {
        "length": 32,
        "start": 2355
      },
      {
        "length": 32,
        "start": 2921
      },
      {
        "length": 32,
        "start": 3658
      }
    ]
  },
  "source": "// SPDX-License-Identifier: MIT\r\npragma solidity ^0.8.0;\r\n\r\n/* solhint-disable avoid-low-level-calls */\r\n/* solhint-disable no-inline-assembly */\r\n/* solhint-disable reason-string */\r\n\r\nimport \"@openzeppelin/contracts/utils/cryptography/ECDSA.sol\";\r\nimport \"@openzeppelin/contracts/proxy/utils/Initializable.sol\";\r\nimport \"@openzeppelin/contracts/proxy/utils/UUPSUpgradeable.sol\";\r\n\r\nimport \"../Core/BaseAccount.sol\";\r\n\r\n/**\r\n * minimal account.\r\n *  this is sample minimal account.\r\n *  has execute, eth handling methods\r\n *  has a single signer that can send requests through the entryPoint.\r\n */\r\ncontract SimpleAccount is BaseAccount, UUPSUpgradeable, Initializable {\r\n    using ECDSA for bytes32;\r\n\r\n    //explicit sizes of nonce, to fit a single storage cell with \"owner\"\r\n    uint96 private _nonce;\r\n    address public owner;\r\n\r\n    function nonce() public view virtual override returns (uint256) {\r\n        return _nonce;\r\n    }\r\n\r\n    function entryPoint() public view virtual override returns (IEntryPoint) {\r\n        return _entryPoint;\r\n    }\r\n\r\n    IEntryPoint private immutable _entryPoint;\r\n\r\n    event SimpleAccountInitialized(\r\n        IEntryPoint indexed entryPoint,\r\n        address indexed owner\r\n    );\r\n\r\n    // solhint-disable-next-line no-empty-blocks\r\n    receive() external payable {}\r\n\r\n    constructor(IEntryPoint anEntryPoint) {\r\n        _entryPoint = anEntryPoint;\r\n    }\r\n\r\n    modifier onlyOwner() {\r\n        _onlyOwner();\r\n        _;\r\n    }\r\n\r\n    function _onlyOwner() internal view {\r\n        //directly from EOA owner, or through the entryPoint (which gets redirected through execFromEntryPoint)\r\n        require(\r\n            msg.sender == owner || msg.sender == address(this),\r\n            \"only owner\"\r\n        );\r\n    }\r\n\r\n    /**\r\n     * execute a transaction (called directly from owner, not by entryPoint)\r\n     */\r\n    function execute(\r\n        address dest,\r\n        uint256 value,\r\n        bytes calldata func\r\n    ) external {\r\n        _requireFromEntryPointOrOwner();\r\n        _call(dest, value, func);\r\n    }\r\n\r\n    /**\r\n     * execute a sequence of transaction\r\n     */\r\n    function executeBatch(address[] calldata dest, bytes[] calldata func)\r\n        external\r\n    {\r\n        _requireFromEntryPointOrOwner();\r\n        require(dest.length == func.length, \"wrong array lengths\");\r\n        for (uint256 i = 0; i < dest.length; i++) {\r\n            _call(dest[i], 0, func[i]);\r\n        }\r\n    }\r\n\r\n    /**\r\n     * change entry-point:\r\n     * an account must have a method for replacing the entryPoint, in case the the entryPoint is\r\n     * upgraded to a newer version.\r\n     */\r\n    function initialize(address anOwner) public virtual initializer {\r\n        _initialize(anOwner);\r\n    }\r\n\r\n    function _initialize(address anOwner) internal virtual {\r\n        owner = anOwner;\r\n        emit SimpleAccountInitialized(_entryPoint, owner);\r\n    }\r\n\r\n    /**\r\n     * validate the userOp is correct.\r\n     * revert if it doesn't.\r\n     * - must only be called from the entryPoint.\r\n     * - make sure the signature is of our supported signer.\r\n     * - validate current nonce matches request nonce, and increment it.\r\n     * - pay prefund, in case current deposit is not enough\r\n     */\r\n    function _requireFromEntryPointOrOwner() internal view {\r\n        require(\r\n            msg.sender == address(entryPoint()) || msg.sender == owner,\r\n            \"account: not Owner or EntryPoint\"\r\n        );\r\n    }\r\n\r\n    /// implement template method of BaseAccount\r\n    function _validateAndUpdateNonce(UserOperation calldata userOp)\r\n        internal\r\n        override\r\n    {\r\n        require(_nonce++ == userOp.nonce, \"account: invalid nonce\");\r\n    }\r\n\r\n    /// implement template method of BaseAccount\r\n    function _validateSignature(\r\n        UserOperation calldata userOp,\r\n        bytes32 userOpHash,\r\n        address\r\n    ) internal virtual override returns (uint256 sigTimeRange) {\r\n        bytes32 hash = userOpHash.toEthSignedMessageHash();\r\n        if (owner != hash.recover(userOp.signature))\r\n            return SIG_VALIDATION_FAILED;\r\n        return 0;\r\n    }\r\n\r\n    function _call(\r\n        address target,\r\n        uint256 value,\r\n        bytes memory data\r\n    ) internal {\r\n        (bool success, bytes memory result) = target.call{value: value}(data);\r\n        if (!success) {\r\n            assembly {\r\n                revert(add(result, 32), mload(result))\r\n            }\r\n        }\r\n    }\r\n\r\n    /**\r\n     * check current account deposit in the entryPoint\r\n     */\r\n    function getDeposit() public view returns (uint256) {\r\n        return entryPoint().balanceOf(address(this));\r\n    }\r\n\r\n    /**\r\n     * deposit more funds for this account in the entryPoint\r\n     */\r\n    function addDeposit() public payable {\r\n        (bool req, ) = address(entryPoint()).call{value: msg.value}(\"\");\r\n        require(req);\r\n    }\r\n\r\n    /**\r\n     * withdraw value from the account's deposit\r\n     * @param withdrawAddress target to send to\r\n     * @param amount to withdraw\r\n     */\r\n    function withdrawDepositTo(address payable withdrawAddress, uint256 amount)\r\n        public\r\n        onlyOwner\r\n    {\r\n        entryPoint().withdrawTo(withdrawAddress, amount);\r\n    }\r\n\r\n    function _authorizeUpgrade(address newImplementation)\r\n        internal\r\n        view\r\n        override\r\n    {\r\n        (newImplementation);\r\n        _onlyOwner();\r\n    }\r\n}\r\n",
  "sourcePath": "C:\\Users\\Ghadi\\Desktop\\Portfolio\\Smart-Contract-Wallet\\account-abstraction-contracts\\contracts\\Implementation\\SimpleAccount.sol",
  "compiler": {
    "name": "solc",
    "version": "0.8.18+commit.87f61d96.Emscripten.clang"
  },
  "schemaVersion": "3.4.4",
  "updatedAt": "2023-02-06T14:00:17.764Z",
  "networkType": "ethereum",
  "devdoc": {
    "events": {
      "AdminChanged(address,address)": {
        "details": "Emitted when the admin account has changed."
      },
      "BeaconUpgraded(address)": {
        "details": "Emitted when the beacon is upgraded."
      },
      "Initialized(uint8)": {
        "details": "Triggered when the contract has been initialized or reinitialized."
      },
      "Upgraded(address)": {
        "details": "Emitted when the implementation is upgraded."
      }
    },
    "kind": "dev",
    "methods": {
      "proxiableUUID()": {
        "details": "Implementation of the ERC1822 {proxiableUUID} function. This returns the storage slot used by the implementation. It is used to validate the implementation's compatibility when performing an upgrade. IMPORTANT: A proxy pointing at a proxiable contract should not be considered proxiable itself, because this risks bricking a proxy that upgrades to it, by delegating to itself until out of gas. Thus it is critical that this function revert if invoked through a proxy. This is guaranteed by the `notDelegated` modifier."
      },
      "upgradeTo(address)": {
        "details": "Upgrade the implementation of the proxy to `newImplementation`. Calls {_authorizeUpgrade}. Emits an {Upgraded} event."
      },
      "upgradeToAndCall(address,bytes)": {
        "details": "Upgrade the implementation of the proxy to `newImplementation`, and subsequently execute the function call encoded in `data`. Calls {_authorizeUpgrade}. Emits an {Upgraded} event."
      },
      "withdrawDepositTo(address,uint256)": {
        "params": {
          "amount": "to withdraw",
          "withdrawAddress": "target to send to"
        }
      }
    },
    "version": 1
  },
  "userdoc": {
    "kind": "user",
    "methods": {
      "addDeposit()": {
        "notice": "deposit more funds for this account in the entryPoint"
      },
      "entryPoint()": {
        "notice": "return the entryPoint used by this account. subclass should return the current entryPoint used by this account."
      },
      "execute(address,uint256,bytes)": {
        "notice": "execute a transaction (called directly from owner, not by entryPoint)"
      },
      "executeBatch(address[],bytes[])": {
        "notice": "execute a sequence of transaction"
      },
      "getDeposit()": {
        "notice": "check current account deposit in the entryPoint"
      },
      "initialize(address)": {
        "notice": "change entry-point: an account must have a method for replacing the entryPoint, in case the the entryPoint is upgraded to a newer version."
      },
      "nonce()": {
        "notice": "return the account nonce. subclass should return a nonce value that is used both by _validateAndUpdateNonce, and by the external provider (to read the current nonce)"
      },
      "validateUserOp((address,uint256,bytes,bytes,uint256,uint256,uint256,uint256,uint256,bytes,bytes),bytes32,address,uint256)": {
        "notice": "Validate user's signature and nonce. subclass doesn't need to override this method. Instead, it should override the specific internal validation methods."
      },
      "withdrawDepositTo(address,uint256)": {
        "notice": "withdraw value from the account's deposit"
      }
    },
    "notice": "minimal account.  this is sample minimal account.  has execute, eth handling methods  has a single signer that can send requests through the entryPoint.",
    "version": 1
  }
}