{
  "contractName": "SimpleAccountFactory",
  "abi": [
    {
      "inputs": [
        {
          "internalType": "contract IEntryPoint",
          "name": "_entryPoint",
          "type": "address"
        }
      ],
      "stateMutability": "nonpayable",
      "type": "constructor"
    },
    {
      "inputs": [],
      "name": "accountImplementation",
      "outputs": [
        {
          "internalType": "contract SimpleAccount",
          "name": "",
          "type": "address"
        }
      ],
      "stateMutability": "view",
      "type": "function"
    },
    {
      "inputs": [
        {
          "internalType": "address",
          "name": "owner",
          "type": "address"
        },
        {
          "internalType": "uint256",
          "name": "salt",
          "type": "uint256"
        }
      ],
      "name": "createAccount",
      "outputs": [
        {
          "internalType": "contract SimpleAccount",
          "name": "ret",
          "type": "address"
        }
      ],
      "stateMutability": "nonpayable",
      "type": "function"
    },
    {
      "inputs": [
        {
          "internalType": "address",
          "name": "owner",
          "type": "address"
        },
        {
          "internalType": "uint256",
          "name": "salt",
          "type": "uint256"
        }
      ],
      "name": "getAddress",
      "outputs": [
        {
          "internalType": "address",
          "name": "",
          "type": "address"
        }
      ],
      "stateMutability": "view",
      "type": "function"
    }
  ],
  "bytecode": "0x60a060405234801561001057600080fd5b506040516127a23803806127a283398101604081905261002f91610088565b8060405161003c9061007b565b6001600160a01b039091168152602001604051809103906000f080158015610068573d6000803e3d6000fd5b506001600160a01b0316608052506100b8565b611e4a8061095883390190565b60006020828403121561009a57600080fd5b81516001600160a01b03811681146100b157600080fd5b9392505050565b6080516108796100df60003960008181604b0152818160ed01526101ba01526108796000f3fe608060405234801561001057600080fd5b50600436106100415760003560e01c806311464fbe146100465780635fbfb9cf146100895780638cb84e181461009c575b600080fd5b61006d7f000000000000000000000000000000000000000000000000000000000000000081565b6040516001600160a01b03909116815260200160405180910390f35b61006d610097366004610295565b6100af565b61006d6100aa366004610295565b61017b565b6000806100bc848461017b565b90506001600160a01b0381163b80156100d757509050610175565b6040516001600160a01b038616602482015284907f00000000000000000000000000000000000000000000000000000000000000009060440160408051601f198184030181529181526020820180516001600160e01b031663189acdbd60e31b1790525161014490610288565b61014f9291906102f1565b8190604051809103906000f590508015801561016f573d6000803e3d6000fd5b50925050505b92915050565b600061024f8260001b6040518060200161019490610288565b601f1982820381018352601f9091011660408190526001600160a01b03871660248201527f00000000000000000000000000000000000000000000000000000000000000009060440160408051601f19818403018152918152602080830180516001600160e01b031663189acdbd60e31b1790529051610216939291016102f1565b60408051601f19818403018152908290526102349291602001610333565b60405160208183030381529060405280519060200120610256565b9392505050565b600061024f8383306000604051836040820152846020820152828152600b8101905060ff815360559020949350505050565b6104e18061036383390190565b600080604083850312156102a857600080fd5b82356001600160a01b03811681146102bf57600080fd5b946020939093013593505050565b60005b838110156102e85781810151838201526020016102d0565b50506000910152565b60018060a01b0383168152604060208201526000825180604084015261031e8160608501602087016102cd565b601f01601f1916919091016060019392505050565b600083516103458184602088016102cd565b8351908301906103598183602088016102cd565b0194935050505056fe60806040526040516104e13803806104e1833981016040819052610022916102de565b61002e82826000610035565b50506103fb565b61003e83610061565b60008251118061004b5750805b1561005c5761005a83836100a1565b505b505050565b61006a816100cd565b6040516001600160a01b038216907fbc7cd75a20ee27fd9adebab32041f755214dbc6bffa90cc0225b39da2e5c2d3b90600090a250565b60606100c683836040518060600160405280602781526020016104ba60279139610180565b9392505050565b6001600160a01b0381163b61013f5760405162461bcd60e51b815260206004820152602d60248201527f455243313936373a206e657720696d706c656d656e746174696f6e206973206e60448201526c1bdd08184818dbdb9d1c9858dd609a1b60648201526084015b60405180910390fd5b7f360894a13ba1a3210667c828492db98dca3e2076cc3735a920a3ca505d382bbc80546001600160a01b0319166001600160a01b0392909216919091179055565b6060600080856001600160a01b03168560405161019d91906103ac565b600060405180830381855af49150503d80600081146101d8576040519150601f19603f3d011682016040523d82523d6000602084013e6101dd565b606091505b5090925090506101ef868383876101f9565b9695505050505050565b60608315610268578251600003610261576001600160a01b0385163b6102615760405162461bcd60e51b815260206004820152601d60248201527f416464726573733a2063616c6c20746f206e6f6e2d636f6e74726163740000006044820152606401610136565b5081610272565b610272838361027a565b949350505050565b81511561028a5781518083602001fd5b8060405162461bcd60e51b815260040161013691906103c8565b634e487b7160e01b600052604160045260246000fd5b60005b838110156102d55781810151838201526020016102bd565b50506000910152565b600080604083850312156102f157600080fd5b82516001600160a01b038116811461030857600080fd5b60208401519092506001600160401b038082111561032557600080fd5b818501915085601f83011261033957600080fd5b81518181111561034b5761034b6102a4565b604051601f8201601f19908116603f01168101908382118183101715610373576103736102a4565b8160405282815288602084870101111561038c57600080fd5b61039d8360208301602088016102ba565b80955050505050509250929050565b600082516103be8184602087016102ba565b9190910192915050565b60208152600082518060208401526103e78160408501602087016102ba565b601f01601f19169190910160400192915050565b60b1806104096000396000f3fe608060405236601057600e6013565b005b600e5b601f601b6021565b6058565b565b600060537f360894a13ba1a3210667c828492db98dca3e2076cc3735a920a3ca505d382bbc546001600160a01b031690565b905090565b3660008037600080366000845af43d6000803e8080156076573d6000f35b3d6000fdfea2646970667358221220f526c8eccd3f903e484af5444e2bdc74ab45f3fbc3410f4069528e78e3e8ae7864736f6c63430008130033416464726573733a206c6f772d6c6576656c2064656c65676174652063616c6c206661696c6564a2646970667358221220fda4e3cd892b7f93c682b40890e1add8ee1963fce644d108f85664273f3c4a9c64736f6c6343000813003360c0604052306080523480156200001557600080fd5b5060405162001e4a38038062001e4a833981016040819052620000389162000118565b6001600160a01b03811660a0526200004f62000056565b506200014a565b600054610100900460ff1615620000c35760405162461bcd60e51b815260206004820152602760248201527f496e697469616c697a61626c653a20636f6e747261637420697320696e697469604482015266616c697a696e6760c81b606482015260840160405180910390fd5b60005460ff908116101562000116576000805460ff191660ff9081179091556040519081527f7f26b83ff96e1f2b6a682f133852f6798a09c465da95921460cefb38474024989060200160405180910390a15b565b6000602082840312156200012b57600080fd5b81516001600160a01b03811681146200014357600080fd5b9392505050565b60805160a051611c94620001b6600039600081816102e301528181610630015281816106b10152818161090e01528181610ab901528181610d370152610fe801526000818161051401528181610554015281816107420152818161078201526108150152611c946000f3fe60806040526004361061010c5760003560e01c806352d1902d11610095578063b61d27f611610064578063b61d27f614610307578063bc197c8114610327578063c399ec8814610356578063c4d66de81461036b578063f23a6e611461038b57600080fd5b806352d1902d146102625780638da5cb5b14610277578063affed0e0146102b6578063b0d691fe146102d457600080fd5b80633659cfe6116100dc5780633659cfe6146101d95780633a871cdd146101f95780634a58db19146102275780634d44560d1461022f5780634f1ef2861461024f57600080fd5b806223de291461011857806301ffc9a71461013f578063150b7a021461017457806318dfb3c7146101b957600080fd5b3661011357005b600080fd5b34801561012457600080fd5b5061013d61013336600461154b565b5050505050505050565b005b34801561014b57600080fd5b5061015f61015a3660046115fc565b6103b8565b60405190151581526020015b60405180910390f35b34801561018057600080fd5b506101a061018f366004611626565b630a85bd0160e11b95945050505050565b6040516001600160e01b0319909116815260200161016b565b3480156101c557600080fd5b5061013d6101d43660046116de565b61040a565b3480156101e557600080fd5b5061013d6101f436600461174a565b61050a565b34801561020557600080fd5b50610219610214366004611767565b6105e9565b60405190815260200161016b565b61013d61062e565b34801561023b57600080fd5b5061013d61024a3660046117bb565b6106a7565b61013d61025d3660046117fd565b610738565b34801561026e57600080fd5b50610219610808565b34801561028357600080fd5b5060015461029e90600160601b90046001600160a01b031681565b6040516001600160a01b03909116815260200161016b565b3480156102c257600080fd5b506001546001600160601b0316610219565b3480156102e057600080fd5b507f000000000000000000000000000000000000000000000000000000000000000061029e565b34801561031357600080fd5b5061013d6103223660046118c1565b6108bb565b34801561033357600080fd5b506101a0610342366004611911565b63bc197c8160e01b98975050505050505050565b34801561036257600080fd5b5061021961090a565b34801561037757600080fd5b5061013d61038636600461174a565b61099c565b34801561039757600080fd5b506101a06103a63660046119af565b63f23a6e6160e01b9695505050505050565b60006001600160e01b03198216630a85bd0160e11b14806103e957506001600160e01b03198216630271189760e51b145b8061040457506001600160e01b031982166301ffc9a760e01b145b92915050565b610412610aae565b82811461045c5760405162461bcd60e51b815260206004820152601360248201527277726f6e67206172726179206c656e6774687360681b60448201526064015b60405180910390fd5b60005b83811015610503576104f185858381811061047c5761047c611a2b565b9050602002016020810190610491919061174a565b60008585858181106104a5576104a5611a2b565b90506020028101906104b79190611a41565b8080601f016020809104026020016040519081016040528093929190818152602001838380828437600092019190915250610b4492505050565b806104fb81611a9e565b91505061045f565b5050505050565b6001600160a01b037f00000000000000000000000000000000000000000000000000000000000000001630036105525760405162461bcd60e51b815260040161045390611ab7565b7f00000000000000000000000000000000000000000000000000000000000000006001600160a01b031661059b600080516020611c18833981519152546001600160a01b031690565b6001600160a01b0316146105c15760405162461bcd60e51b815260040161045390611b03565b6105ca81610bb4565b604080516000808252602082019092526105e691839190610bbc565b50565b60006105f3610d2c565b6105fd8484610da4565b905061060c6040850185611a41565b905060000361061e5761061e84610e7e565b61062782610f12565b9392505050565b7f000000000000000000000000000000000000000000000000000000000000000060405163b760faf960e01b81523060048201526001600160a01b03919091169063b760faf99034906024016000604051808303818588803b15801561069357600080fd5b505af1158015610503573d6000803e3d6000fd5b6106af610f5f565b7f000000000000000000000000000000000000000000000000000000000000000060405163040b850f60e31b81526001600160a01b03848116600483015260248201849052919091169063205c287890604401600060405180830381600087803b15801561071c57600080fd5b505af1158015610730573d6000803e3d6000fd5b505050505050565b6001600160a01b037f00000000000000000000000000000000000000000000000000000000000000001630036107805760405162461bcd60e51b815260040161045390611ab7565b7f00000000000000000000000000000000000000000000000000000000000000006001600160a01b03166107c9600080516020611c18833981519152546001600160a01b031690565b6001600160a01b0316146107ef5760405162461bcd60e51b815260040161045390611b03565b6107f882610bb4565b61080482826001610bbc565b5050565b6000306001600160a01b037f000000000000000000000000000000000000000000000000000000000000000016146108a85760405162461bcd60e51b815260206004820152603860248201527f555550535570677261646561626c653a206d757374206e6f742062652063616c60448201527f6c6564207468726f7567682064656c656761746563616c6c00000000000000006064820152608401610453565b50600080516020611c1883398151915290565b6108c3610aae565b610904848484848080601f016020809104026020016040519081016040528093929190818152602001838380828437600092019190915250610b4492505050565b50505050565b60007f00000000000000000000000000000000000000000000000000000000000000006040516370a0823160e01b81523060048201526001600160a01b0391909116906370a0823190602401602060405180830381865afa158015610973573d6000803e3d6000fd5b505050506040513d601f19601f820116820180604052508101906109979190611b4f565b905090565b600054610100900460ff16158080156109bc5750600054600160ff909116105b806109d65750303b1580156109d6575060005460ff166001145b610a395760405162461bcd60e51b815260206004820152602e60248201527f496e697469616c697a61626c653a20636f6e747261637420697320616c72656160448201526d191e481a5b9a5d1a585b1a5e995960921b6064820152608401610453565b6000805460ff191660011790558015610a5c576000805461ff0019166101001790555b610a6582610fb7565b8015610804576000805461ff0019169055604051600181527f7f26b83ff96e1f2b6a682f133852f6798a09c465da95921460cefb38474024989060200160405180910390a15050565b336001600160a01b037f0000000000000000000000000000000000000000000000000000000000000000161480610af65750600154600160601b90046001600160a01b031633145b610b425760405162461bcd60e51b815260206004820181905260248201527f6163636f756e743a206e6f74204f776e6572206f7220456e747279506f696e746044820152606401610453565b565b600080846001600160a01b03168484604051610b609190611b8c565b60006040518083038185875af1925050503d8060008114610b9d576040519150601f19603f3d011682016040523d82523d6000602084013e610ba2565b606091505b50915091508161050357805160208201fd5b6105e6610f5f565b7f4910fdfa16fed3260ed0e7147f7cc6da11a60208b5b9406d12a635614ffd91435460ff1615610bf457610bef83611034565b505050565b826001600160a01b03166352d1902d6040518163ffffffff1660e01b8152600401602060405180830381865afa925050508015610c4e575060408051601f3d908101601f19168201909252610c4b91810190611b4f565b60015b610cb15760405162461bcd60e51b815260206004820152602e60248201527f45524331393637557067726164653a206e657720696d706c656d656e7461746960448201526d6f6e206973206e6f74205555505360901b6064820152608401610453565b600080516020611c188339815191528114610d205760405162461bcd60e51b815260206004820152602960248201527f45524331393637557067726164653a20756e737570706f727465642070726f786044820152681a58589b195555525160ba1b6064820152608401610453565b50610bef8383836110d0565b336001600160a01b037f00000000000000000000000000000000000000000000000000000000000000001614610b425760405162461bcd60e51b815260206004820152601c60248201527f6163636f756e743a206e6f742066726f6d20456e747279506f696e74000000006044820152606401610453565b600080610dfe836040517f19457468657265756d205369676e6564204d6573736167653a0a3332000000006020820152603c8101829052600090605c01604051602081830303815290604052805190602001209050919050565b9050610e4e610e11610140860186611a41565b8080601f01602080910402602001604051908101604052809392919081815260200183838082843760009201919091525085939250506110f59050565b600154600160601b90046001600160a01b03908116911614610e74576001915050610404565b5060009392505050565b600180546020830135916001600160601b03909116906000610e9f83611ba8565b91906101000a8154816001600160601b0302191690836001600160601b031602179055506001600160601b0316146105e65760405162461bcd60e51b81526020600482015260166024820152756163636f756e743a20696e76616c6964206e6f6e636560501b6044820152606401610453565b80156105e657604051600090339060001990849084818181858888f193505050503d8060008114610503576040519150601f19603f3d011682016040523d82523d6000602084013e610503565b600154600160601b90046001600160a01b0316331480610f7e57503330145b610b425760405162461bcd60e51b815260206004820152600a60248201526937b7363c9037bbb732b960b11b6044820152606401610453565b600180546001600160601b0316600160601b6001600160a01b038481168202929092179283905560405192048116917f0000000000000000000000000000000000000000000000000000000000000000909116907f47e55c76e7a6f1fd8996a1da8008c1ea29699cca35e7bcd057f2dec313b6e5de90600090a350565b6001600160a01b0381163b6110a15760405162461bcd60e51b815260206004820152602d60248201527f455243313936373a206e657720696d706c656d656e746174696f6e206973206e60448201526c1bdd08184818dbdb9d1c9858dd609a1b6064820152608401610453565b600080516020611c1883398151915280546001600160a01b0319166001600160a01b0392909216919091179055565b6110d983611119565b6000825111806110e65750805b15610bef576109048383611159565b6000806000611104858561117e565b91509150611111816111c3565b509392505050565b61112281611034565b6040516001600160a01b038216907fbc7cd75a20ee27fd9adebab32041f755214dbc6bffa90cc0225b39da2e5c2d3b90600090a250565b60606106278383604051806060016040528060278152602001611c386027913961130d565b60008082516041036111b45760208301516040840151606085015160001a6111a887828585611385565b945094505050506111bc565b506000905060025b9250929050565b60008160048111156111d7576111d7611bce565b036111df5750565b60018160048111156111f3576111f3611bce565b036112405760405162461bcd60e51b815260206004820152601860248201527f45434453413a20696e76616c6964207369676e617475726500000000000000006044820152606401610453565b600281600481111561125457611254611bce565b036112a15760405162461bcd60e51b815260206004820152601f60248201527f45434453413a20696e76616c6964207369676e6174757265206c656e677468006044820152606401610453565b60038160048111156112b5576112b5611bce565b036105e65760405162461bcd60e51b815260206004820152602260248201527f45434453413a20696e76616c6964207369676e6174757265202773272076616c604482015261756560f01b6064820152608401610453565b6060600080856001600160a01b03168560405161132a9190611b8c565b600060405180830381855af49150503d8060008114611365576040519150601f19603f3d011682016040523d82523d6000602084013e61136a565b606091505b509150915061137b86838387611449565b9695505050505050565b6000807f7fffffffffffffffffffffffffffffff5d576e7357a4501ddfe92f46681b20a08311156113bc5750600090506003611440565b6040805160008082526020820180845289905260ff881692820192909252606081018690526080810185905260019060a0016020604051602081039080840390855afa158015611410573d6000803e3d6000fd5b5050604051601f1901519150506001600160a01b03811661143957600060019250925050611440565b9150600090505b94509492505050565b606083156114b85782516000036114b1576001600160a01b0385163b6114b15760405162461bcd60e51b815260206004820152601d60248201527f416464726573733a2063616c6c20746f206e6f6e2d636f6e74726163740000006044820152606401610453565b50816114c2565b6114c283836114ca565b949350505050565b8151156114da5781518083602001fd5b8060405162461bcd60e51b81526004016104539190611be4565b6001600160a01b03811681146105e657600080fd5b60008083601f84011261151b57600080fd5b50813567ffffffffffffffff81111561153357600080fd5b6020830191508360208285010111156111bc57600080fd5b60008060008060008060008060c0898b03121561156757600080fd5b8835611572816114f4565b97506020890135611582816114f4565b96506040890135611592816114f4565b955060608901359450608089013567ffffffffffffffff808211156115b657600080fd5b6115c28c838d01611509565b909650945060a08b01359150808211156115db57600080fd5b506115e88b828c01611509565b999c989b5096995094979396929594505050565b60006020828403121561160e57600080fd5b81356001600160e01b03198116811461062757600080fd5b60008060008060006080868803121561163e57600080fd5b8535611649816114f4565b94506020860135611659816114f4565b935060408601359250606086013567ffffffffffffffff81111561167c57600080fd5b61168888828901611509565b969995985093965092949392505050565b60008083601f8401126116ab57600080fd5b50813567ffffffffffffffff8111156116c357600080fd5b6020830191508360208260051b85010111156111bc57600080fd5b600080600080604085870312156116f457600080fd5b843567ffffffffffffffff8082111561170c57600080fd5b61171888838901611699565b9096509450602087013591508082111561173157600080fd5b5061173e87828801611699565b95989497509550505050565b60006020828403121561175c57600080fd5b8135610627816114f4565b60008060006060848603121561177c57600080fd5b833567ffffffffffffffff81111561179357600080fd5b840161016081870312156117a657600080fd5b95602085013595506040909401359392505050565b600080604083850312156117ce57600080fd5b82356117d9816114f4565b946020939093013593505050565b634e487b7160e01b600052604160045260246000fd5b6000806040838503121561181057600080fd5b823561181b816114f4565b9150602083013567ffffffffffffffff8082111561183857600080fd5b818501915085601f83011261184c57600080fd5b81358181111561185e5761185e6117e7565b604051601f8201601f19908116603f01168101908382118183101715611886576118866117e7565b8160405282815288602084870101111561189f57600080fd5b8260208601602083013760006020848301015280955050505050509250929050565b600080600080606085870312156118d757600080fd5b84356118e2816114f4565b935060208501359250604085013567ffffffffffffffff81111561190557600080fd5b61173e87828801611509565b60008060008060008060008060a0898b03121561192d57600080fd5b8835611938816114f4565b97506020890135611948816114f4565b9650604089013567ffffffffffffffff8082111561196557600080fd5b6119718c838d01611699565b909850965060608b013591508082111561198a57600080fd5b6119968c838d01611699565b909650945060808b01359150808211156115db57600080fd5b60008060008060008060a087890312156119c857600080fd5b86356119d3816114f4565b955060208701356119e3816114f4565b94506040870135935060608701359250608087013567ffffffffffffffff811115611a0d57600080fd5b611a1989828a01611509565b979a9699509497509295939492505050565b634e487b7160e01b600052603260045260246000fd5b6000808335601e19843603018112611a5857600080fd5b83018035915067ffffffffffffffff821115611a7357600080fd5b6020019150368190038213156111bc57600080fd5b634e487b7160e01b600052601160045260246000fd5b600060018201611ab057611ab0611a88565b5060010190565b6020808252602c908201527f46756e6374696f6e206d7573742062652063616c6c6564207468726f7567682060408201526b19195b1959d85d1958d85b1b60a21b606082015260800190565b6020808252602c908201527f46756e6374696f6e206d7573742062652063616c6c6564207468726f7567682060408201526b6163746976652070726f787960a01b606082015260800190565b600060208284031215611b6157600080fd5b5051919050565b60005b83811015611b83578181015183820152602001611b6b565b50506000910152565b60008251611b9e818460208701611b68565b9190910192915050565b60006001600160601b03808316818103611bc457611bc4611a88565b6001019392505050565b634e487b7160e01b600052602160045260246000fd5b6020815260008251806020840152611c03816040850160208701611b68565b601f01601f1916919091016040019291505056fe360894a13ba1a3210667c828492db98dca3e2076cc3735a920a3ca505d382bbc416464726573733a206c6f772d6c6576656c2064656c65676174652063616c6c206661696c6564a2646970667358221220f625dc989050fe86ffc6c3b5bc082802a68d0d2bfcec45921c6870967a7fa3cd64736f6c63430008130033",
  "immutableReferences": {
    "3400": [
      {
        "length": 32,
        "start": 75
      },
      {
        "length": 32,
        "start": 237
      },
      {
        "length": 32,
        "start": 442
      }
    ]
  },
  "source": "// SPDX-License-Identifier: MIT\r\npragma solidity ^0.8.0;\r\n\r\nimport \"@openzeppelin/contracts/utils/Create2.sol\";\r\nimport \"@openzeppelin/contracts/proxy/ERC1967/ERC1967Proxy.sol\";\r\n\r\nimport \"./SimpleAccount.sol\";\r\n\r\n/**\r\n * A sample factory contract for SimpleAccount\r\n * A UserOperations \"initCode\" holds the address of the factory, and a method call (to createAccount, in this sample factory).\r\n * The factory's createAccount returns the target account address even if it is already installed.\r\n * This way, the entryPoint.getSenderAddress() can be called either before or after the account is created.\r\n */\r\ncontract SimpleAccountFactory {\r\n    SimpleAccount public immutable accountImplementation;\r\n\r\n    constructor(IEntryPoint _entryPoint) {\r\n        accountImplementation = new SimpleAccount(_entryPoint);\r\n    }\r\n\r\n    /**\r\n     * create an account, and return its address.\r\n     * returns the address even if the account is already deployed.\r\n     * Note that during UserOperation execution, this method is called only if the account is not deployed.\r\n     * This method returns an existing account address so that entryPoint.getSenderAddress() would work even after account creation\r\n     */\r\n    function createAccount(\r\n        address owner,\r\n        uint256 salt\r\n    ) public returns (SimpleAccount ret) {\r\n        address addr = getAddress(owner, salt);\r\n        uint codeSize = addr.code.length;\r\n        if (codeSize > 0) {\r\n            return SimpleAccount(payable(addr));\r\n        }\r\n        ret = SimpleAccount(\r\n            payable(\r\n                new ERC1967Proxy{salt: bytes32(salt)}(\r\n                    address(accountImplementation),\r\n                    abi.encodeCall(SimpleAccount.initialize, (owner))\r\n                )\r\n            )\r\n        );\r\n    }\r\n\r\n    /**\r\n     * calculate the counterfactual address of this account as it would be returned by createAccount()\r\n     */\r\n    function getAddress(\r\n        address owner,\r\n        uint256 salt\r\n    ) public view returns (address) {\r\n        return\r\n            Create2.computeAddress(\r\n                bytes32(salt),\r\n                keccak256(\r\n                    abi.encodePacked(\r\n                        type(ERC1967Proxy).creationCode,\r\n                        abi.encode(\r\n                            address(accountImplementation),\r\n                            abi.encodeCall(SimpleAccount.initialize, (owner))\r\n                        )\r\n                    )\r\n                )\r\n            );\r\n    }\r\n}\r\n",
  "sourcePath": "C:\\Users\\Ghadi\\Desktop\\Portfolio\\Projects\\Account-Abstraction\\Smart-Contract-Wallet\\account-abstraction-contracts\\contracts\\Implementation\\SimpleAccountFactory.sol",
  "compiler": {
    "name": "solc",
    "version": "0.8.19+commit.7dd6d404.Emscripten.clang"
  },
  "schemaVersion": "3.4.4",
  "updatedAt": "2023-03-25T10:25:01.712Z",
  "devdoc": {
    "kind": "dev",
    "methods": {},
    "version": 1
  },
  "userdoc": {
    "kind": "user",
    "methods": {
      "createAccount(address,uint256)": {
        "notice": "create an account, and return its address. returns the address even if the account is already deployed. Note that during UserOperation execution, this method is called only if the account is not deployed. This method returns an existing account address so that entryPoint.getSenderAddress() would work even after account creation"
      },
      "getAddress(address,uint256)": {
        "notice": "calculate the counterfactual address of this account as it would be returned by createAccount()"
      }
    },
    "notice": "A sample factory contract for SimpleAccount A UserOperations \"initCode\" holds the address of the factory, and a method call (to createAccount, in this sample factory). The factory's createAccount returns the target account address even if it is already installed. This way, the entryPoint.getSenderAddress() can be called either before or after the account is created.",
    "version": 1
  }
}