{
  "contractName": "SimpleAccountFactory",
  "abi": [
    {
      "inputs": [
        {
          "internalType": "address",
          "name": "_SimpleAccountAddress",
          "type": "address"
        }
      ],
      "stateMutability": "nonpayable",
      "type": "constructor"
    },
    {
      "anonymous": false,
      "inputs": [
        {
          "indexed": true,
          "internalType": "address",
          "name": "_simpleAccount",
          "type": "address"
        }
      ],
      "name": "NewSimpleAccount",
      "type": "event"
    },
    {
      "anonymous": false,
      "inputs": [
        {
          "indexed": true,
          "internalType": "address",
          "name": "previousOwner",
          "type": "address"
        },
        {
          "indexed": true,
          "internalType": "address",
          "name": "newOwner",
          "type": "address"
        }
      ],
      "name": "OwnershipTransferred",
      "type": "event"
    },
    {
      "inputs": [],
      "name": "accountImplementation",
      "outputs": [
        {
          "internalType": "contract SimpleAccount",
          "name": "",
          "type": "address"
        }
      ],
      "stateMutability": "view",
      "type": "function"
    },
    {
      "inputs": [
        {
          "internalType": "uint256",
          "name": "",
          "type": "uint256"
        }
      ],
      "name": "children",
      "outputs": [
        {
          "internalType": "address",
          "name": "",
          "type": "address"
        }
      ],
      "stateMutability": "view",
      "type": "function"
    },
    {
      "inputs": [],
      "name": "owner",
      "outputs": [
        {
          "internalType": "address",
          "name": "",
          "type": "address"
        }
      ],
      "stateMutability": "view",
      "type": "function"
    },
    {
      "inputs": [],
      "name": "renounceOwnership",
      "outputs": [],
      "stateMutability": "nonpayable",
      "type": "function"
    },
    {
      "inputs": [
        {
          "internalType": "address",
          "name": "newOwner",
          "type": "address"
        }
      ],
      "name": "transferOwnership",
      "outputs": [],
      "stateMutability": "nonpayable",
      "type": "function"
    },
    {
      "inputs": [
        {
          "internalType": "address",
          "name": "newAddr",
          "type": "address"
        }
      ],
      "name": "changeBaseAccountAddress",
      "outputs": [],
      "stateMutability": "nonpayable",
      "type": "function"
    },
    {
      "inputs": [
        {
          "internalType": "address",
          "name": "entrypoint",
          "type": "address"
        },
        {
          "internalType": "bytes32",
          "name": "salt",
          "type": "bytes32"
        }
      ],
      "name": "createAccount",
      "outputs": [],
      "stateMutability": "nonpayable",
      "type": "function"
    },
    {
      "inputs": [
        {
          "internalType": "bytes32",
          "name": "salt",
          "type": "bytes32"
        }
      ],
      "name": "getAddress",
      "outputs": [
        {
          "internalType": "address",
          "name": "",
          "type": "address"
        }
      ],
      "stateMutability": "view",
      "type": "function"
    }
  ],
  "bytecode": "0x608060405234801561001057600080fd5b5060405161068838038061068883398101604081905261002f916100ad565b6100383361005d565b600180546001600160a01b0319166001600160a01b03929092169190911790556100dd565b600080546001600160a01b038381166001600160a01b0319831681178455604051919092169283917f8be0079c531659141344cd1fd0a4f28419497f9722a3daafe3b4186f6b6457e09190a35050565b6000602082840312156100bf57600080fd5b81516001600160a01b03811681146100d657600080fd5b9392505050565b61059c806100ec6000396000f3fe608060405234801561001057600080fd5b50600436106100885760003560e01c8063715018a61161005b578063715018a6146100f75780638da5cb5b146100ff578063f14ddffc14610110578063f2fde38b1461012357600080fd5b806311464fbe1461008d5780631d81dcff146100bc57806321f8a721146100d15780637002ce42146100e4575b600080fd5b6003546100a0906001600160a01b031681565b6040516001600160a01b03909116815260200160405180910390f35b6100cf6100ca366004610508565b610136565b005b6100a06100df366004610523565b610160565b6100a06100f2366004610523565b610182565b6100cf6101ac565b6000546001600160a01b03166100a0565b6100cf61011e36600461053c565b6101c0565b6100cf610131366004610508565b6102c2565b61013e610340565b600180546001600160a01b0319166001600160a01b0392909216919091179055565b600154600090819061017b906001600160a01b03168461039a565b9392505050565b6002818154811061019257600080fd5b6000918252602090912001546001600160a01b0316905081565b6101b4610340565b6101be60006103ff565b565b6101c8610340565b6001546000906101e1906001600160a01b03168361044f565b600280546001810182556000919091527f405787fa12a823e0f2b7631cc41b3ba8828b3321ca811111fa75cd3aa3bb5ace0180546001600160a01b0319166001600160a01b0383811691821790925560405163485cc95560e01b8152918616600483015233602483015291925063485cc95590604401600060405180830381600087803b15801561027157600080fd5b505af1158015610285573d6000803e3d6000fd5b50506040516001600160a01b03841692507f6ce2d4d884d1145aa4e5f0833c2d8f4e2524019eb0908bb9d39472a9ddc25b139150600090a2505050565b6102ca610340565b6001600160a01b0381166103345760405162461bcd60e51b815260206004820152602660248201527f4f776e61626c653a206e6577206f776e657220697320746865207a65726f206160448201526564647265737360d01b60648201526084015b60405180910390fd5b61033d816103ff565b50565b6000546001600160a01b031633146101be5760405162461bcd60e51b815260206004820181905260248201527f4f776e61626c653a2063616c6c6572206973206e6f7420746865206f776e6572604482015260640161032b565b6040513060388201526f5af43d82803e903d91602b57fd5bf3ff602482015260148101839052733d602d80600a3d3981f3363d3d373d3d3d363d738152605881018290526037600c820120607882015260556043909101206000905b90505b92915050565b600080546001600160a01b038381166001600160a01b0319831681178455604051919092169283917f8be0079c531659141344cd1fd0a4f28419497f9722a3daafe3b4186f6b6457e09190a35050565b6000763d602d80600a3d3981f3363d3d373d3d3d363d730000008360601b60e81c176000526e5af43d82803e903d91602b57fd5bf38360781b1760205281603760096000f590506001600160a01b0381166103f95760405162461bcd60e51b815260206004820152601760248201527f455243313136373a2063726561746532206661696c6564000000000000000000604482015260640161032b565b80356001600160a01b038116811461050357600080fd5b919050565b60006020828403121561051a57600080fd5b6103f6826104ec565b60006020828403121561053557600080fd5b5035919050565b6000806040838503121561054f57600080fd5b610558836104ec565b94602093909301359350505056fea26469706673582212204985da1a34e66a6085c97f1e7a23c2b3727365daf8b402708293b5809757d9b864736f6c63430008120033",
  "immutableReferences": {},
  "source": "// SPDX-License-Identifier: MIT\r\npragma solidity ^0.8.0;\r\n\r\nimport \"@openzeppelin/contracts/proxy/Clones.sol\";\r\nimport \"@openzeppelin/contracts/access/Ownable.sol\";\r\n\r\nimport \"./SimpleAccount.sol\";\r\n\r\ninterface ISimpleAccount {\r\n    function initialize(address entrypoint, address owner) external;\r\n}\r\n\r\n/**\r\n * A sample factory contract for SimpleAccount\r\n * A UserOperations \"initCode\" holds the address of the factory, and a method call (to createAccount, in this sample factory).\r\n * The factory's createAccount returns the target account address even if it is already installed.\r\n * This way, the entryPoint.getSenderAddress() can be called either before or after the account is created.\r\n */\r\ncontract SimpleAccountFactory is Ownable {\r\n    /// @notice cheaply clone contract functionality in an immutable way\r\n    using Clones for address;\r\n\r\n    address private SimpleAccountAddress;\r\n\r\n    address[] public children;\r\n\r\n    SimpleAccount public accountImplementation;\r\n\r\n    /// @notice Event emitted on new proxy creation\r\n    event NewSimpleAccount(address indexed _simpleAccount);\r\n\r\n    constructor(address _SimpleAccountAddress) {\r\n        SimpleAccountAddress = _SimpleAccountAddress;\r\n    }\r\n\r\n    /**\r\n     * @notice change base address\r\n     **/\r\n    function changeBaseAccountAddress(address newAddr) external onlyOwner {\r\n        SimpleAccountAddress = newAddr;\r\n    }\r\n\r\n    /**\r\n     * create an account, and return its address.\r\n     * returns the address even if the account is already deployed.\r\n     * Note that during UserOperation execution, this method is called only if the account is not deployed.\r\n     * This method returns an existing account address so that entryPoint.getSenderAddress() would work even after account creation\r\n     */\r\n    function createAccount(address entrypoint, bytes32 salt)\r\n        external\r\n        onlyOwner\r\n    {\r\n        address identicalChild = SimpleAccountAddress.cloneDeterministic(salt);\r\n\r\n        children.push(identicalChild);\r\n\r\n        ISimpleAccount(identicalChild).initialize(entrypoint, msg.sender);\r\n\r\n        emit NewSimpleAccount(identicalChild);\r\n    }\r\n\r\n    /**\r\n     * calculate the counterfactual address of this account as it would be returned by createAccount()\r\n     */\r\n    function getAddress(bytes32 salt) external view returns (address) {\r\n        address simpleAccountAddress = Clones.predictDeterministicAddress(\r\n            SimpleAccountAddress,\r\n            salt\r\n        );\r\n        return simpleAccountAddress;\r\n    }\r\n}\r\n",
  "sourcePath": "C:\\Users\\Ghadi\\Desktop\\Portfolio\\Smart-Contract-Wallet\\account-abstraction-contracts\\contracts\\Implementation\\SimpleAccountFactory.sol",
  "compiler": {
    "name": "solc",
    "version": "0.8.18+commit.87f61d96.Emscripten.clang"
  },
  "schemaVersion": "3.4.4",
  "updatedAt": "2023-02-18T15:20:25.513Z",
  "devdoc": {
    "kind": "dev",
    "methods": {
      "owner()": {
        "details": "Returns the address of the current owner."
      },
      "renounceOwnership()": {
        "details": "Leaves the contract without owner. It will not be possible to call `onlyOwner` functions anymore. Can only be called by the current owner. NOTE: Renouncing ownership will leave the contract without an owner, thereby removing any functionality that is only available to the owner."
      },
      "transferOwnership(address)": {
        "details": "Transfers ownership of the contract to a new account (`newOwner`). Can only be called by the current owner."
      }
    },
    "version": 1
  },
  "userdoc": {
    "events": {
      "NewSimpleAccount(address)": {
        "notice": "Event emitted on new proxy creation"
      }
    },
    "kind": "user",
    "methods": {
      "changeBaseAccountAddress(address)": {
        "notice": "change base address*"
      },
      "createAccount(address,bytes32)": {
        "notice": "create an account, and return its address. returns the address even if the account is already deployed. Note that during UserOperation execution, this method is called only if the account is not deployed. This method returns an existing account address so that entryPoint.getSenderAddress() would work even after account creation"
      },
      "getAddress(bytes32)": {
        "notice": "calculate the counterfactual address of this account as it would be returned by createAccount()"
      }
    },
    "notice": "A sample factory contract for SimpleAccount A UserOperations \"initCode\" holds the address of the factory, and a method call (to createAccount, in this sample factory). The factory's createAccount returns the target account address even if it is already installed. This way, the entryPoint.getSenderAddress() can be called either before or after the account is created.",
    "version": 1
  }
}