{
  "contractName": "SimpleAccount",
  "abi": [
    {
      "inputs": [],
      "stateMutability": "nonpayable",
      "type": "constructor"
    },
    {
      "anonymous": false,
      "inputs": [
        {
          "indexed": false,
          "internalType": "address",
          "name": "previousAdmin",
          "type": "address"
        },
        {
          "indexed": false,
          "internalType": "address",
          "name": "newAdmin",
          "type": "address"
        }
      ],
      "name": "AdminChanged",
      "type": "event"
    },
    {
      "anonymous": false,
      "inputs": [
        {
          "indexed": true,
          "internalType": "address",
          "name": "beacon",
          "type": "address"
        }
      ],
      "name": "BeaconUpgraded",
      "type": "event"
    },
    {
      "anonymous": false,
      "inputs": [
        {
          "indexed": false,
          "internalType": "uint8",
          "name": "version",
          "type": "uint8"
        }
      ],
      "name": "Initialized",
      "type": "event"
    },
    {
      "anonymous": false,
      "inputs": [
        {
          "indexed": true,
          "internalType": "contract IEntryPoint",
          "name": "entryPoint",
          "type": "address"
        },
        {
          "indexed": true,
          "internalType": "address",
          "name": "owner",
          "type": "address"
        }
      ],
      "name": "SimpleAccountInitialized",
      "type": "event"
    },
    {
      "anonymous": false,
      "inputs": [
        {
          "indexed": true,
          "internalType": "address",
          "name": "implementation",
          "type": "address"
        }
      ],
      "name": "Upgraded",
      "type": "event"
    },
    {
      "inputs": [],
      "name": "isBase",
      "outputs": [
        {
          "internalType": "bool",
          "name": "",
          "type": "bool"
        }
      ],
      "stateMutability": "view",
      "type": "function",
      "constant": true
    },
    {
      "inputs": [],
      "name": "owner",
      "outputs": [
        {
          "internalType": "address",
          "name": "",
          "type": "address"
        }
      ],
      "stateMutability": "view",
      "type": "function",
      "constant": true
    },
    {
      "inputs": [],
      "name": "proxiableUUID",
      "outputs": [
        {
          "internalType": "bytes32",
          "name": "",
          "type": "bytes32"
        }
      ],
      "stateMutability": "view",
      "type": "function",
      "constant": true
    },
    {
      "inputs": [
        {
          "internalType": "address",
          "name": "newImplementation",
          "type": "address"
        }
      ],
      "name": "upgradeTo",
      "outputs": [],
      "stateMutability": "nonpayable",
      "type": "function"
    },
    {
      "inputs": [
        {
          "internalType": "address",
          "name": "newImplementation",
          "type": "address"
        },
        {
          "internalType": "bytes",
          "name": "data",
          "type": "bytes"
        }
      ],
      "name": "upgradeToAndCall",
      "outputs": [],
      "stateMutability": "payable",
      "type": "function",
      "payable": true
    },
    {
      "inputs": [
        {
          "components": [
            {
              "internalType": "address",
              "name": "sender",
              "type": "address"
            },
            {
              "internalType": "uint256",
              "name": "nonce",
              "type": "uint256"
            },
            {
              "internalType": "bytes",
              "name": "initCode",
              "type": "bytes"
            },
            {
              "internalType": "bytes",
              "name": "callData",
              "type": "bytes"
            },
            {
              "internalType": "uint256",
              "name": "callGasLimit",
              "type": "uint256"
            },
            {
              "internalType": "uint256",
              "name": "verificationGasLimit",
              "type": "uint256"
            },
            {
              "internalType": "uint256",
              "name": "preVerificationGas",
              "type": "uint256"
            },
            {
              "internalType": "uint256",
              "name": "maxFeePerGas",
              "type": "uint256"
            },
            {
              "internalType": "uint256",
              "name": "maxPriorityFeePerGas",
              "type": "uint256"
            },
            {
              "internalType": "bytes",
              "name": "paymasterAndData",
              "type": "bytes"
            },
            {
              "internalType": "bytes",
              "name": "signature",
              "type": "bytes"
            }
          ],
          "internalType": "struct UserOperation",
          "name": "userOp",
          "type": "tuple"
        },
        {
          "internalType": "bytes32",
          "name": "userOpHash",
          "type": "bytes32"
        },
        {
          "internalType": "address",
          "name": "aggregator",
          "type": "address"
        },
        {
          "internalType": "uint256",
          "name": "missingAccountFunds",
          "type": "uint256"
        }
      ],
      "name": "validateUserOp",
      "outputs": [
        {
          "internalType": "uint256",
          "name": "sigTimeRange",
          "type": "uint256"
        }
      ],
      "stateMutability": "nonpayable",
      "type": "function"
    },
    {
      "stateMutability": "payable",
      "type": "receive",
      "payable": true
    },
    {
      "inputs": [],
      "name": "nonce",
      "outputs": [
        {
          "internalType": "uint256",
          "name": "",
          "type": "uint256"
        }
      ],
      "stateMutability": "view",
      "type": "function",
      "constant": true
    },
    {
      "inputs": [],
      "name": "entryPoint",
      "outputs": [
        {
          "internalType": "contract IEntryPoint",
          "name": "",
          "type": "address"
        }
      ],
      "stateMutability": "view",
      "type": "function",
      "constant": true
    },
    {
      "inputs": [
        {
          "internalType": "address",
          "name": "dest",
          "type": "address"
        },
        {
          "internalType": "uint256",
          "name": "value",
          "type": "uint256"
        },
        {
          "internalType": "bytes",
          "name": "func",
          "type": "bytes"
        }
      ],
      "name": "execute",
      "outputs": [],
      "stateMutability": "nonpayable",
      "type": "function"
    },
    {
      "inputs": [
        {
          "internalType": "address[]",
          "name": "dest",
          "type": "address[]"
        },
        {
          "internalType": "bytes[]",
          "name": "func",
          "type": "bytes[]"
        }
      ],
      "name": "executeBatch",
      "outputs": [],
      "stateMutability": "nonpayable",
      "type": "function"
    },
    {
      "inputs": [
        {
          "internalType": "contract IEntryPoint",
          "name": "anEntryPoint",
          "type": "address"
        },
        {
          "internalType": "address",
          "name": "owner_",
          "type": "address"
        }
      ],
      "name": "initialize",
      "outputs": [],
      "stateMutability": "nonpayable",
      "type": "function"
    },
    {
      "inputs": [],
      "name": "getDeposit",
      "outputs": [
        {
          "internalType": "uint256",
          "name": "",
          "type": "uint256"
        }
      ],
      "stateMutability": "view",
      "type": "function",
      "constant": true
    },
    {
      "inputs": [],
      "name": "addDeposit",
      "outputs": [],
      "stateMutability": "payable",
      "type": "function",
      "payable": true
    },
    {
      "inputs": [
        {
          "internalType": "address payable",
          "name": "withdrawAddress",
          "type": "address"
        },
        {
          "internalType": "uint256",
          "name": "amount",
          "type": "uint256"
        }
      ],
      "name": "withdrawDepositTo",
      "outputs": [],
      "stateMutability": "nonpayable",
      "type": "function"
    }
  ],
  "bytecode": "0x60a06040523060805234801561001457600080fd5b506000805462ff000019166201000017905560805161190461005d60003960008181610403015281816104430152818161077d015281816107bd015261085001526119046000f3fe6080604052600436106100e15760003560e01c806352d1902d1161007f578063affed0e011610059578063affed0e01461023a578063b0d691fe1461025f578063b61d27f61461027d578063c399ec881461029d57600080fd5b806352d1902d146101bd5780637f80069a146101d25780638da5cb5b1461020257600080fd5b8063485cc955116100bb578063485cc955146101625780634a58db19146101825780634d44560d1461018a5780634f1ef286146101aa57600080fd5b80630825d1fc146100ed57806318dfb3c7146101205780633659cfe61461014257600080fd5b366100e857005b600080fd5b3480156100f957600080fd5b5061010d61010836600461139e565b6102b2565b6040519081526020015b60405180910390f35b34801561012c57600080fd5b5061014061013b36600461144a565b6102f9565b005b34801561014e57600080fd5b5061014061015d3660046114b6565b6103f9565b34801561016e57600080fd5b5061014061017d3660046114d3565b6104d8565b610140610686565b34801561019657600080fd5b506101406101a536600461150c565b6106f7565b6101406101b836600461154e565b610773565b3480156101c957600080fd5b5061010d610843565b3480156101de57600080fd5b506000546101f29062010000900460ff1681565b6040519015158152602001610117565b34801561020e57600080fd5b50600154610222906001600160a01b031681565b6040516001600160a01b039091168152602001610117565b34801561024657600080fd5b50600054630100000090046001600160601b031661010d565b34801561026b57600080fd5b506002546001600160a01b0316610222565b34801561028957600080fd5b50610140610298366004611612565b6108f6565b3480156102a957600080fd5b5061010d610945565b60006102bc6109c8565b6102c7858585610a24565b90506102d6604086018661169b565b90506000036102e8576102e885610afa565b6102f182610b94565b949350505050565b610301610be1565b82811461034b5760405162461bcd60e51b815260206004820152601360248201527277726f6e67206172726179206c656e6774687360681b60448201526064015b60405180910390fd5b60005b838110156103f2576103e085858381811061036b5761036b6116e2565b905060200201602081019061038091906114b6565b6000858585818110610394576103946116e2565b90506020028101906103a6919061169b565b8080601f016020809104026020016040519081016040528093929190818152602001838380828437600092019190915250610c5092505050565b806103ea8161170e565b91505061034e565b5050505050565b6001600160a01b037f00000000000000000000000000000000000000000000000000000000000000001630036104415760405162461bcd60e51b815260040161034290611727565b7f00000000000000000000000000000000000000000000000000000000000000006001600160a01b031661048a600080516020611888833981519152546001600160a01b031690565b6001600160a01b0316146104b05760405162461bcd60e51b815260040161034290611773565b6104b981610cc0565b604080516000808252602082019092526104d591839190610cc8565b50565b600054610100900460ff16158080156104f85750600054600160ff909116105b806105125750303b158015610512575060005460ff166001145b6105755760405162461bcd60e51b815260206004820152602e60248201527f496e697469616c697a61626c653a20636f6e747261637420697320616c72656160448201526d191e481a5b9a5d1a585b1a5e995960921b6064820152608401610342565b6000805460ff191660011790558015610598576000805461ff0019166101001790555b60005462010000900460ff16156106175760405162461bcd60e51b815260206004820152603f60248201527f53696d706c654163636f756e743a20746869732069732074686520626173652060448201527f636f6e74726163742c2063616e6e6f7420626520696e697469616c697a6564006064820152608401610342565b600280546001600160a01b0319166001600160a01b03851617905561063b82610e33565b8015610681576000805461ff0019169055604051600181527f7f26b83ff96e1f2b6a682f133852f6798a09c465da95921460cefb38474024989060200160405180910390a15b505050565b600061069a6002546001600160a01b031690565b6001600160a01b03163460405160006040518083038185875af1925050503d80600081146106e4576040519150601f19603f3d011682016040523d82523d6000602084013e6106e9565b606091505b50509050806104d557600080fd5b6106ff610e85565b6002546001600160a01b031660405163040b850f60e31b81526001600160a01b03848116600483015260248201849052919091169063205c287890604401600060405180830381600087803b15801561075757600080fd5b505af115801561076b573d6000803e3d6000fd5b505050505050565b6001600160a01b037f00000000000000000000000000000000000000000000000000000000000000001630036107bb5760405162461bcd60e51b815260040161034290611727565b7f00000000000000000000000000000000000000000000000000000000000000006001600160a01b0316610804600080516020611888833981519152546001600160a01b031690565b6001600160a01b03161461082a5760405162461bcd60e51b815260040161034290611773565b61083382610cc0565b61083f82826001610cc8565b5050565b6000306001600160a01b037f000000000000000000000000000000000000000000000000000000000000000016146108e35760405162461bcd60e51b815260206004820152603860248201527f555550535570677261646561626c653a206d757374206e6f742062652063616c60448201527f6c6564207468726f7567682064656c656761746563616c6c00000000000000006064820152608401610342565b5060008051602061188883398151915290565b6108fe610be1565b61093f848484848080601f016020809104026020016040519081016040528093929190818152602001838380828437600092019190915250610c5092505050565b50505050565b60006109596002546001600160a01b031690565b6040516370a0823160e01b81523060048201526001600160a01b0391909116906370a0823190602401602060405180830381865afa15801561099f573d6000803e3d6000fd5b505050506040513d601f19601f820116820180604052508101906109c391906117bf565b905090565b6002546001600160a01b03163314610a225760405162461bcd60e51b815260206004820152601c60248201527f6163636f756e743a206e6f742066726f6d20456e747279506f696e74000000006044820152606401610342565b565b600080610a7e846040517f19457468657265756d205369676e6564204d6573736167653a0a3332000000006020820152603c8101829052600090605c01604051602081830303815290604052805190602001209050919050565b9050610ace610a9161014087018761169b565b8080601f0160208091040260200160405190810160405280939291908181526020018383808284376000920191909152508593925050610ed69050565b6001546001600160a01b03908116911614610aed576001915050610af3565b60009150505b9392505050565b6000805460208301359163010000009091046001600160601b0316906003610b21836117d8565b91906101000a8154816001600160601b0302191690836001600160601b031602179055506001600160601b0316146104d55760405162461bcd60e51b81526020600482015260166024820152756163636f756e743a20696e76616c6964206e6f6e636560501b6044820152606401610342565b80156104d557604051600090339060001990849084818181858888f193505050503d80600081146103f2576040519150601f19603f3d011682016040523d82523d6000602084013e6103f2565b6002546001600160a01b0316331480610c0457506001546001600160a01b031633145b610a225760405162461bcd60e51b815260206004820181905260248201527f6163636f756e743a206e6f74204f776e6572206f7220456e747279506f696e746044820152606401610342565b600080846001600160a01b03168484604051610c6c9190611822565b60006040518083038185875af1925050503d8060008114610ca9576040519150601f19603f3d011682016040523d82523d6000602084013e610cae565b606091505b5091509150816103f257805160208201fd5b6104d5610e85565b7f4910fdfa16fed3260ed0e7147f7cc6da11a60208b5b9406d12a635614ffd91435460ff1615610cfb5761068183610efa565b826001600160a01b03166352d1902d6040518163ffffffff1660e01b8152600401602060405180830381865afa925050508015610d55575060408051601f3d908101601f19168201909252610d52918101906117bf565b60015b610db85760405162461bcd60e51b815260206004820152602e60248201527f45524331393637557067726164653a206e657720696d706c656d656e7461746960448201526d6f6e206973206e6f74205555505360901b6064820152608401610342565b6000805160206118888339815191528114610e275760405162461bcd60e51b815260206004820152602960248201527f45524331393637557067726164653a20756e737570706f727465642070726f786044820152681a58589b195555525160ba1b6064820152608401610342565b50610681838383610f96565b600180546001600160a01b0319166001600160a01b03838116918217909255600254604051919216907f47e55c76e7a6f1fd8996a1da8008c1ea29699cca35e7bcd057f2dec313b6e5de90600090a350565b6001546001600160a01b0316331480610e9d57503330145b610a225760405162461bcd60e51b815260206004820152600a60248201526937b7363c9037bbb732b960b11b6044820152606401610342565b6000806000610ee58585610fbb565b91509150610ef281611000565b509392505050565b6001600160a01b0381163b610f675760405162461bcd60e51b815260206004820152602d60248201527f455243313936373a206e657720696d706c656d656e746174696f6e206973206e60448201526c1bdd08184818dbdb9d1c9858dd609a1b6064820152608401610342565b60008051602061188883398151915280546001600160a01b0319166001600160a01b0392909216919091179055565b610f9f8361114a565b600082511180610fac5750805b156106815761093f838361118a565b6000808251604103610ff15760208301516040840151606085015160001a610fe5878285856111af565b94509450505050610ff9565b506000905060025b9250929050565b60008160048111156110145761101461183e565b0361101c5750565b60018160048111156110305761103061183e565b0361107d5760405162461bcd60e51b815260206004820152601860248201527f45434453413a20696e76616c6964207369676e617475726500000000000000006044820152606401610342565b60028160048111156110915761109161183e565b036110de5760405162461bcd60e51b815260206004820152601f60248201527f45434453413a20696e76616c6964207369676e6174757265206c656e677468006044820152606401610342565b60038160048111156110f2576110f261183e565b036104d55760405162461bcd60e51b815260206004820152602260248201527f45434453413a20696e76616c6964207369676e6174757265202773272076616c604482015261756560f01b6064820152608401610342565b61115381610efa565b6040516001600160a01b038216907fbc7cd75a20ee27fd9adebab32041f755214dbc6bffa90cc0225b39da2e5c2d3b90600090a250565b6060610af383836040518060600160405280602781526020016118a860279139611273565b6000807f7fffffffffffffffffffffffffffffff5d576e7357a4501ddfe92f46681b20a08311156111e6575060009050600361126a565b6040805160008082526020820180845289905260ff881692820192909252606081018690526080810185905260019060a0016020604051602081039080840390855afa15801561123a573d6000803e3d6000fd5b5050604051601f1901519150506001600160a01b0381166112635760006001925092505061126a565b9150600090505b94509492505050565b6060600080856001600160a01b0316856040516112909190611822565b600060405180830381855af49150503d80600081146112cb576040519150601f19603f3d011682016040523d82523d6000602084013e6112d0565b606091505b50915091506112e1868383876112eb565b9695505050505050565b6060831561135a578251600003611353576001600160a01b0385163b6113535760405162461bcd60e51b815260206004820152601d60248201527f416464726573733a2063616c6c20746f206e6f6e2d636f6e74726163740000006044820152606401610342565b50816102f1565b6102f1838381511561136f5781518083602001fd5b8060405162461bcd60e51b81526004016103429190611854565b6001600160a01b03811681146104d557600080fd5b600080600080608085870312156113b457600080fd5b843567ffffffffffffffff8111156113cb57600080fd5b850161016081880312156113de57600080fd5b93506020850135925060408501356113f581611389565b9396929550929360600135925050565b60008083601f84011261141757600080fd5b50813567ffffffffffffffff81111561142f57600080fd5b6020830191508360208260051b8501011115610ff957600080fd5b6000806000806040858703121561146057600080fd5b843567ffffffffffffffff8082111561147857600080fd5b61148488838901611405565b9096509450602087013591508082111561149d57600080fd5b506114aa87828801611405565b95989497509550505050565b6000602082840312156114c857600080fd5b8135610af381611389565b600080604083850312156114e657600080fd5b82356114f181611389565b9150602083013561150181611389565b809150509250929050565b6000806040838503121561151f57600080fd5b823561152a81611389565b946020939093013593505050565b634e487b7160e01b600052604160045260246000fd5b6000806040838503121561156157600080fd5b823561156c81611389565b9150602083013567ffffffffffffffff8082111561158957600080fd5b818501915085601f83011261159d57600080fd5b8135818111156115af576115af611538565b604051601f8201601f19908116603f011681019083821181831017156115d7576115d7611538565b816040528281528860208487010111156115f057600080fd5b8260208601602083013760006020848301015280955050505050509250929050565b6000806000806060858703121561162857600080fd5b843561163381611389565b935060208501359250604085013567ffffffffffffffff8082111561165757600080fd5b818701915087601f83011261166b57600080fd5b81358181111561167a57600080fd5b88602082850101111561168c57600080fd5b95989497505060200194505050565b6000808335601e198436030181126116b257600080fd5b83018035915067ffffffffffffffff8211156116cd57600080fd5b602001915036819003821315610ff957600080fd5b634e487b7160e01b600052603260045260246000fd5b634e487b7160e01b600052601160045260246000fd5b600060018201611720576117206116f8565b5060010190565b6020808252602c908201527f46756e6374696f6e206d7573742062652063616c6c6564207468726f7567682060408201526b19195b1959d85d1958d85b1b60a21b606082015260800190565b6020808252602c908201527f46756e6374696f6e206d7573742062652063616c6c6564207468726f7567682060408201526b6163746976652070726f787960a01b606082015260800190565b6000602082840312156117d157600080fd5b5051919050565b60006001600160601b038083168181036117f4576117f46116f8565b6001019392505050565b60005b83811015611819578181015183820152602001611801565b50506000910152565b600082516118348184602087016117fe565b9190910192915050565b634e487b7160e01b600052602160045260246000fd5b60208152600082518060208401526118738160408501602087016117fe565b601f01601f1916919091016040019291505056fe360894a13ba1a3210667c828492db98dca3e2076cc3735a920a3ca505d382bbc416464726573733a206c6f772d6c6576656c2064656c65676174652063616c6c206661696c6564a2646970667358221220615f75f2f4b4239c0cec86c827179fbdbb6869bab172e91c7da042beaf7ead2664736f6c63430008120033",
  "immutableReferences": {
    "715": [
      {
        "length": 32,
        "start": 1027
      },
      {
        "length": 32,
        "start": 1091
      },
      {
        "length": 32,
        "start": 1917
      },
      {
        "length": 32,
        "start": 1981
      },
      {
        "length": 32,
        "start": 2128
      }
    ]
  },
  "source": "// SPDX-License-Identifier: MIT\r\npragma solidity ^0.8.0;\r\n\r\n/* solhint-disable avoid-low-level-calls */\r\n/* solhint-disable no-inline-assembly */\r\n/* solhint-disable reason-string */\r\n\r\nimport \"@openzeppelin/contracts/utils/cryptography/ECDSA.sol\";\r\nimport \"@openzeppelin/contracts/proxy/utils/Initializable.sol\";\r\nimport \"@openzeppelin/contracts/proxy/utils/UUPSUpgradeable.sol\";\r\n\r\nimport \"../Core/BaseAccount.sol\";\r\n\r\n/**\r\n * minimal account.\r\n *  this is sample minimal account.\r\n *  has execute, eth handling methods\r\n *  has a single signer that can send requests through the entryPoint.\r\n */\r\ncontract SimpleAccount is BaseAccount, UUPSUpgradeable, Initializable {\r\n    using ECDSA for bytes32;\r\n\r\n    /// @notice defining whether contract is Base or not\r\n    bool public isBase;\r\n\r\n    //explicit sizes of nonce, to fit a single storage cell with \"owner\"\r\n    uint96 private _nonce;\r\n    address public owner;\r\n\r\n    function nonce() public view virtual override returns (uint256) {\r\n        return _nonce;\r\n    }\r\n\r\n    function entryPoint() public view virtual override returns (IEntryPoint) {\r\n        return _entryPoint;\r\n    }\r\n\r\n    IEntryPoint private _entryPoint;\r\n\r\n    event SimpleAccountInitialized(\r\n        IEntryPoint indexed entryPoint,\r\n        address indexed owner\r\n    );\r\n\r\n    // solhint-disable-next-line no-empty-blocks\r\n    receive() external payable {}\r\n\r\n    constructor() {\r\n        isBase = true;\r\n    }\r\n\r\n    modifier onlyOwner() {\r\n        _onlyOwner();\r\n        _;\r\n    }\r\n\r\n    function _onlyOwner() internal view {\r\n        //directly from EOA owner, or through the entryPoint (which gets redirected through execFromEntryPoint)\r\n        require(\r\n            msg.sender == owner || msg.sender == address(this),\r\n            \"only owner\"\r\n        );\r\n    }\r\n\r\n    /**\r\n     * execute a transaction (called directly from owner, not by entryPoint)\r\n     */\r\n    function execute(\r\n        address dest,\r\n        uint256 value,\r\n        bytes calldata func\r\n    ) external {\r\n        _requireFromEntryPointOrOwner();\r\n        _call(dest, value, func);\r\n    }\r\n\r\n    /**\r\n     * execute a sequence of transaction\r\n     */\r\n    function executeBatch(address[] calldata dest, bytes[] calldata func)\r\n        external\r\n    {\r\n        _requireFromEntryPointOrOwner();\r\n        require(dest.length == func.length, \"wrong array lengths\");\r\n        for (uint256 i = 0; i < dest.length; i++) {\r\n            _call(dest[i], 0, func[i]);\r\n        }\r\n    }\r\n\r\n    /**\r\n     * change entry-point:\r\n     * an account must have a method for replacing the entryPoint, in case the the entryPoint is\r\n     * upgraded to a newer version.\r\n     */\r\n    function initialize(IEntryPoint anEntryPoint, address owner_)\r\n        external\r\n        initializer\r\n    {\r\n        require(\r\n            isBase == false,\r\n            \"SimpleAccount: this is the base contract, cannot be initialized\"\r\n        );\r\n        _entryPoint = anEntryPoint;\r\n\r\n        _initialize(owner_);\r\n    }\r\n\r\n    function _initialize(address anOwner) internal virtual {\r\n        owner = anOwner;\r\n        emit SimpleAccountInitialized(_entryPoint, owner);\r\n    }\r\n\r\n    /**\r\n     * validate the userOp is correct.\r\n     * revert if it doesn't.\r\n     * - must only be called from the entryPoint.\r\n     * - make sure the signature is of our supported signer.\r\n     * - validate current nonce matches request nonce, and increment it.\r\n     * - pay prefund, in case current deposit is not enough\r\n     */\r\n    function _requireFromEntryPointOrOwner() internal view {\r\n        require(\r\n            msg.sender == address(entryPoint()) || msg.sender == owner,\r\n            \"account: not Owner or EntryPoint\"\r\n        );\r\n    }\r\n\r\n    /// implement template method of BaseAccount\r\n    function _validateAndUpdateNonce(UserOperation calldata userOp)\r\n        internal\r\n        override\r\n    {\r\n        require(_nonce++ == userOp.nonce, \"account: invalid nonce\");\r\n    }\r\n\r\n    /// implement template method of BaseAccount\r\n    function _validateSignature(\r\n        UserOperation calldata userOp,\r\n        bytes32 userOpHash,\r\n        address\r\n    ) internal virtual override returns (uint256 sigTimeRange) {\r\n        bytes32 hash = userOpHash.toEthSignedMessageHash();\r\n        if (owner != hash.recover(userOp.signature))\r\n            return SIG_VALIDATION_FAILED;\r\n        return 0;\r\n    }\r\n\r\n    function _call(\r\n        address target,\r\n        uint256 value,\r\n        bytes memory data\r\n    ) internal {\r\n        (bool success, bytes memory result) = target.call{value: value}(data);\r\n        if (!success) {\r\n            assembly {\r\n                revert(add(result, 32), mload(result))\r\n            }\r\n        }\r\n    }\r\n\r\n    /**\r\n     * check current account deposit in the entryPoint\r\n     */\r\n    function getDeposit() public view returns (uint256) {\r\n        return entryPoint().balanceOf(address(this));\r\n    }\r\n\r\n    /**\r\n     * deposit more funds for this account in the entryPoint\r\n     */\r\n    function addDeposit() public payable {\r\n        (bool req, ) = address(entryPoint()).call{value: msg.value}(\"\");\r\n        require(req);\r\n    }\r\n\r\n    /**\r\n     * withdraw value from the account's deposit\r\n     * @param withdrawAddress target to send to\r\n     * @param amount to withdraw\r\n     */\r\n    function withdrawDepositTo(address payable withdrawAddress, uint256 amount)\r\n        public\r\n        onlyOwner\r\n    {\r\n        entryPoint().withdrawTo(withdrawAddress, amount);\r\n    }\r\n\r\n    function _authorizeUpgrade(address newImplementation)\r\n        internal\r\n        view\r\n        override\r\n    {\r\n        (newImplementation);\r\n        _onlyOwner();\r\n    }\r\n}\r\n",
  "sourcePath": "C:\\Users\\Ghadi\\Desktop\\Portfolio\\Smart-Contract-Wallet\\account-abstraction-contracts\\contracts\\Implementation\\SimpleAccount.sol",
  "compiler": {
    "name": "solc",
    "version": "0.8.18+commit.87f61d96.Emscripten.clang"
  },
  "schemaVersion": "3.4.4",
  "updatedAt": "2023-02-18T15:26:25.795Z",
  "networkType": "ethereum",
  "devdoc": {
    "events": {
      "AdminChanged(address,address)": {
        "details": "Emitted when the admin account has changed."
      },
      "BeaconUpgraded(address)": {
        "details": "Emitted when the beacon is upgraded."
      },
      "Initialized(uint8)": {
        "details": "Triggered when the contract has been initialized or reinitialized."
      },
      "Upgraded(address)": {
        "details": "Emitted when the implementation is upgraded."
      }
    },
    "kind": "dev",
    "methods": {
      "proxiableUUID()": {
        "details": "Implementation of the ERC1822 {proxiableUUID} function. This returns the storage slot used by the implementation. It is used to validate the implementation's compatibility when performing an upgrade. IMPORTANT: A proxy pointing at a proxiable contract should not be considered proxiable itself, because this risks bricking a proxy that upgrades to it, by delegating to itself until out of gas. Thus it is critical that this function revert if invoked through a proxy. This is guaranteed by the `notDelegated` modifier."
      },
      "upgradeTo(address)": {
        "details": "Upgrade the implementation of the proxy to `newImplementation`. Calls {_authorizeUpgrade}. Emits an {Upgraded} event."
      },
      "upgradeToAndCall(address,bytes)": {
        "details": "Upgrade the implementation of the proxy to `newImplementation`, and subsequently execute the function call encoded in `data`. Calls {_authorizeUpgrade}. Emits an {Upgraded} event."
      },
      "withdrawDepositTo(address,uint256)": {
        "params": {
          "amount": "to withdraw",
          "withdrawAddress": "target to send to"
        }
      }
    },
    "version": 1
  },
  "userdoc": {
    "kind": "user",
    "methods": {
      "addDeposit()": {
        "notice": "deposit more funds for this account in the entryPoint"
      },
      "entryPoint()": {
        "notice": "return the entryPoint used by this account. subclass should return the current entryPoint used by this account."
      },
      "execute(address,uint256,bytes)": {
        "notice": "execute a transaction (called directly from owner, not by entryPoint)"
      },
      "executeBatch(address[],bytes[])": {
        "notice": "execute a sequence of transaction"
      },
      "getDeposit()": {
        "notice": "check current account deposit in the entryPoint"
      },
      "initialize(address,address)": {
        "notice": "change entry-point: an account must have a method for replacing the entryPoint, in case the the entryPoint is upgraded to a newer version."
      },
      "isBase()": {
        "notice": "defining whether contract is Base or not"
      },
      "nonce()": {
        "notice": "return the account nonce. subclass should return a nonce value that is used both by _validateAndUpdateNonce, and by the external provider (to read the current nonce)"
      },
      "validateUserOp((address,uint256,bytes,bytes,uint256,uint256,uint256,uint256,uint256,bytes,bytes),bytes32,address,uint256)": {
        "notice": "Validate user's signature and nonce. subclass doesn't need to override this method. Instead, it should override the specific internal validation methods."
      },
      "withdrawDepositTo(address,uint256)": {
        "notice": "withdraw value from the account's deposit"
      }
    },
    "notice": "minimal account.  this is sample minimal account.  has execute, eth handling methods  has a single signer that can send requests through the entryPoint.",
    "version": 1
  }
}